:020000000B28CB
:10000800DE00030E8312AC000A08AD00E628831652
:10001800FF239000831210288312A001A101A201DE
:10002800A301A401A501A601A701A80183011C2819
:100038000630B0001330AF00AD30AE00AE0B222852
:10004800AF0B2228B00B222829288B168B17831672
:10005800811283128101831681110111811001140B
:100068009F010730831299008316990183129F1705
:100078001F13831605148312051083161F14831289
:100088001F119F1183161F169F161F130511831228
:100098000511831685108312851083168512831225
:1000A8008512831685118312851183160512831212
:1000B80005121F14831205118514851285118230CB
:1000C800AF00DD30AE00AE0B6728AF0B67286C2899
:1000D80083129F1483129F1C7928C730AE0074289E
:1000E800AE0B7328772878286E2803301E05AE00DB
:1000F8002E08A70083161E088312A60005152708D8
:10010800803ADF0080305F02031D8C2850302602C1
:10011800031893280430DF005F088312CB2883126A
:100128002708803ADF0083305F02031D9D283430A2
:1001380026020318A6288312851485128511A801A2
:10014800A80ADC2883122708803ADF0083305F0280
:10015800031DB028DE3026020318B8288312851044
:10016800851685110230C92883122708803ADF00D6
:1001780083305F02031DC228FC3026020318CD28F5
:1001880083128510851285150330DF005F08A800EB
:10019800DC288312A8010330B0004930AF00663074
:1001A800AE00AE0BD528AF0BD528B00BD528000074
:1001B800C3308312AF00CD30AE00AE0BE128AF0BD9
:1001C800E1285E280B1D2C290130A4070318A50A75
:1001D8000030A507053081000B1107302502D0300B
:1001E80003192402031C2C29A201A3012808A90031
:1001F800AA012A082302031D032929082202031839
:100208002A2905160230AB000430AA00BA30A9002A
:10021800A90B0C29AA0B0C29AB0B0C290000831283
:1002280005120230AB000430AA00BA30A900A90BAD
:100238001B29AA0B1B29AB0B1B29000001308312B9
:10024800A2070318A30A0030A307FA28A401A501EE
:0E0258002D088A002C0E8300DE0E5E0E0900BB
:02400E00D431AB
:00000001FF
