:020000000B28CB
:10000800DE00030E8312AC000A08AD00C428831674
:10001800FF239000831210288312A001A101A201DE
:10002800A301A401A501A601A701A80183011C2819
:100038000630B0001330AF00AD30AE00AE0B222852
:10004800AF0B2228B00B222829288B168B17831672
:10005800811283128101831681110111811001140B
:100068009F010730831299008316990183129F1705
:100078001F13831605148312051083161F14831289
:100088001F119F1183161F169F161F1385108312A9
:1000980085108316051183120511831685118312A5
:1000A800851183160512831205121F1483128510F9
:1000B800051185119F1483129F1C70280230B0000F
:1000C8004D30AF007430AE00AE0B6828AF0B682817
:1000D800B00B682800005F2803301E05AE002E080C
:1000E800A70083161E088312A60026082704031DEE
:1000F8007F280430A328023027025B300319260228
:1001080003188C28851405118511A801A80AB5289B
:1001180002302702E13003192602031898288510B7
:10012800051585110230A32802302702FF30031974
:1001380026020318A7288510051185150330DF004E
:100148005F08A800B528A8010330B0004930AF0007
:100158006630AE00AE0BAE28AF0BAE28B00BAE28A3
:10016800000006308312B0001330AF00AD30AE008F
:10017800AE0BBC28AF0BBC28B00BBC28C3285A2830
:100188000B1D0A290130A4070318A50A0030A5078A
:10019800053081000B1107302502D03003192402E5
:1001A800031C0A29A201A3012808A900AA012A08F8
:1001B8002302031DE128290822020318082905162D
:1001C8000230AB000430AA00BA30A900A90BEA2813
:1001D800AA0BEA28AB0BEA280000831205120230AA
:1001E800AB000430AA00BA30A900A90BF928AA0B61
:1001F800F928AB0BF928000001308312A207031875
:10020800A30A0030A307D828A401A5012D088A0055
:0A0218002C0E8300DE0E5E0E0900BE
:02400E00D431AB
:00000001FF
