:0A0000008316FF2390008312F32BF8
:1005CC000630AB001330AA00AD30A900A90BEC2A01
:1005DC00AA0BEC2AAB0BEC2AF32A8B178B12831683
:1005EC000C100C170B138C110B128B1196018C1316
:1005FC008112831281018316811101118110011462
:10060C009F010730831299008316990183129F175B
:10061C001F13831605148312051083161F148312DF
:10062C001F119F1183161F169F161F13051183127E
:10063C00051183168510831285108316851283127B
:10064C00851283160512831205121F148312A4013E
:10065C00A501240885000630AB001330AA00AD308C
:10066C00A900A90B372BAA0B372BAB0B372B3E2B27
:10067C0083129F1483129F1C4B2BC730A900462B4F
:10068C00A90B452B492B4A2B402B03301E05A900E7
:10069C002908A70083161E088312A6002708803A93
:1006AC00DF0080305F02031D5D2B503026020318E3
:1006BC00642B0430DF005F088312A8008312270824
:1006CC00803ADF0083305F02031D6E2B343026022C
:1006DC000318782B06308312A4040030A504A8015B
:1006EC00A80AA92B83122708803ADF0083305F0207
:1006FC00031D822BDE302602031C902B831227084D
:10070C00803ADF0083305F02031D8E2BFC30260203
:10071C0003189A2B24308312A4040030A504033050
:10072C00DF005F08A800A92B8312A8011730AB00CB
:10073C00D530AA001630A900A90BA22BAA0BA22B0C
:10074C00AB0BA22B0000831224088500A201A3018D
:10075C002808A900AA012A082302031DB72B29087F
:10076C0022020318E52B24160230AB000430AA0039
:10077C00BA30A900A90BC02BAA0BC02BAB0BC02BFA
:10078C0000008312240885002F30A4050030A50535
:10079C000230AB000430AA00BA30A900A90BD42B4C
:1007AC00AA0BD42BAB0BD42B00008312240885008E
:1007BC000130A2070318A30A0030A307AE2B103098
:1007CC00AB003930AA000D30A900A90BEB2BAA0BFA
:1007DC00EB2BAB0BEB2BF22B2C2B8312A001A101DF
:1007EC00A201A301A401A501A601A701A8018301EF
:0207FC00E62AEB
:02400E00D431AB
:00000001FF
