:020000000B28CB
:10000800DE00030E8312AC000A08AD00E228831656
:10001800FF239000831210288312A001A101A201DE
:10002800A301A401A501A601A701A80183011C2819
:100038000630B0001330AF00AD30AE00AE0B222852
:10004800AF0B2228B00B222829288B168B17831672
:10005800811283128101831681110111811001140B
:100068009F010730831299008316990183129F1705
:100078001F13831605148312051083161F14831289
:100088001F119F1183161F169F161F1385108312A9
:1000980085108316051183120511831685118312A5
:1000A800851183160512831205121F1482308312DC
:1000B800AF00DD30AE00AE0B5F28AF0B5F286428C1
:1000C80083129F1483129F1C7128C730AE006C28BE
:1000D800AE0B6B286F287028662803301E05AE000B
:1000E8002E08A70083161E088312A6002708803A48
:1000F800DF0080305F02031D83285030260203187A
:100108008A280430DF005F088312C2288312270878
:10011800803ADF0083305F02031D942834302602C2
:1001280003189D288312851405118511A801A80AB2
:10013800D32883122708803ADF0083305F02031D2B
:10014800A728DE3026020318AF288312851005156C
:1001580085110230C02883122708803ADF008330D7
:100168005F02031DB928FC3026020318C428831235
:100178008510051185150330DF005F08A800D32816
:100188008312A8011730B000D530AF001630AE008A
:10019800AE0BCC28AF0BCC28B00BCC280000083015
:1001A8008312B0009D30AF000530AE00AE0BDA28E8
:1001B800AF0BDA28B00BDA28E1285A280B1D2829BA
:1001C8000130A4070318A50A0030A50705308100EF
:1001D8000B1107302502D03003192402031C2829EB
:1001E800A201A3012808A900AA012A082302031DC5
:1001F800FF28290822020318262905160230AB0019
:100208000430AA00BA30A900A90B0829AA0B0829AA
:10021800AB0B08290000831205120230AB00043032
:10022800AA00BA30A900A90B1729AA0B1729AB0BEA
:100238001729000001308312A2070318A30A00300F
:10024800A307F628A401A5012D088A002C0E830017
:06025800DE0E5E0E09003F
:02400E00D431AB
:00000001FF
