:020000000B28CB
:10000800DE00030E8312AC000A08AD00A128831697
:10001800FF239000831210288312A001A101A201DE
:10002800A301A401A501A601A701A80183011C2819
:100038000630B0001330AF00AD30AE00AE0B222852
:10004800AF0B2228B00B222829288B168B17831672
:10005800811283128101831681110111811001140B
:100068009F010730831299008316990183129F1705
:100078001F13831605148312051083161F14831289
:100088001F119F1183161F169F161F1385108312A9
:1000980085108316051183120511831685118312A5
:1000A800851183160512831205121F148312200866
:1000B8002104031D6528851005118511A801A80ACA
:1000C800842820032104031D6E2885140511851139
:1000D80002308128023020062104031D782885106B
:1000E8000515851103308128033020062104031DDE
:1000F80084288510051185150430DF005F08A800E5
:100108000130A0070318A10A0030A107003021021E
:10011800043003192002031C9328A001A1013330E5
:10012800B000BB30AF00DF30AE00AE0B9928AF0B8C
:100138009928B00B9928A0285A280B1DE7280130C8
:10014800A4070318A50A0030A507053081000B1184
:1001580007302502D03003192402031CE728A20126
:10016800A3012808A900AA012A082302031DBE2802
:10017800290822020318E52805160230AB000430CE
:10018800AA00BA30A900A90BC728AA0BC728AB0B2D
:10019800C7280000831205120230AB000430AA0001
:1001A800BA30A900A90BD628AA0BD628AB0BD6289B
:1001B800000001308312A2070318A30A0030A30726
:1001C800B528A401A5012D088A002C0E8300DE0E97
:0401D8005E0E0900AE
:02400E00D431AB
:00000001FF
