:020000000B28CB
:10000800DE00030E8312AB000A08AC00B528831685
:10001800FF239000831210280221B000A001A10143
:10002800A201A301A401A501A601A70183011C281F
:100038000630AF001330AE00AD30AD00AD0B222856
:10004800AE0B2228AF0B222829288B168B17831674
:10005800811283128101831681110111811001140B
:100068009F010730831299008316990183129F1705
:100078001F13831605148312051083161F15831288
:100088001F119F1183161F169F161F1385108312A9
:1000980085108316051183120511831685118312A5
:1000A8008511831605128312051282308312AE0061
:1000B800DD30AD00AD0B5E28AE0B5E2863288312E1
:1000C8009F1483129F1C7028C730AD006B28AD0B9E
:1000D8006A286E286F28652802301E05AD00831631
:1000E8001E0883122D07AE00AF01AF0D2E08A60023
:1000F8002F08A700023027025B30031926020318D5
:100108008B28851405118511B001B00A59280230D1
:100118002702E130031926020318972885100515D0
:1001280085110230A22802302702FF300319260267
:100138000318A6288510051185150330DF005F0810
:10014800B0005928B0019930AF003130AE00A2306C
:10015800AD00AD0BAD28AE0BAD28AF0BAD28000040
:1001680059280B1DFB280130A4070318A50A0030E5
:10017800A507053081000B1107302502D03003197F
:100188002402031CFB28A201A3013008A800A9012E
:1001980029082302031DD228280822020318F92857
:1001A80005160230AA004530A900A930A800A80BFE
:1001B800DB28A90BDB28AA0BDB28E228831205120F
:1001C8000230AA004530A900A930A800A80BEA28E7
:1001D800A90BEA28AA0BEA28F12801308312A20702
:1001E8000318A30A0030A307C928A401A5012C08F5
:0E01F8008A002B0E8300DE0E5E0E090002341C
:02400E00D431AB
:00000001FF
