:020000040000FA
:020000000A28CC
:10000800FE00030EF0000A08F100DC290B28FB01B2
:1000180083120313BA01BB01BC01BD01BE01BF01BC
:10002800C001C101C201C30183011A28003048235D
:1000380083120313B6003608B9000630831203137F
:10004800B8001330B700AD30B600B60B2928B70B8F
:100058002928B80B2928000052220030B12200308C
:100068008222D72283120313420A0330031943065C
:10007800031D3F28402843280430342167284308BB
:10008800803AFF0081307F02031D4C283130420244
:1000980003184F2850285328033034216728831227
:1000A80003134308803AFF0082307F02031D5E2855
:1000B800A9304202031C61286228652804303421D3
:1000C80067280130B1227B1C6A286B28C728831255
:1000D80003130616FD228312031306124108803A01
:1000E800FF0081307F02031D7B281E304002031C65
:1000F8007E287F28832814301A228222C728831258
:1001080003134108803AFF0080307F02031D8E28C8
:100118002E304002031C91289228962850301A222B
:100128008222C728831203134108803AFF008030D7
:100138007F02031DA12815304002031CA428A5280E
:10014800C72883120313390A031DAB28AC28BE281D
:1001580050301A2283120313B6003608B900BE289D
:1001680039088222831203133908B6003608F200D0
:1001780000306723013083120313B902390A031DC3
:10018800C628C728B4280230342131280A28831207
:100198000313A501A11FD128D228D928A009A10994
:1001A800A00A0319A10AA501A50AA31FDC28DD28B6
:1001B800E628A209A309A20A0319A30A0130F80034
:1001C8007808A506A601A701200821040319ED282F
:1001D800EE282529A401A40AFC2801300310A00D4B
:1001E800A10DFF3E031DF2280130F8007808A4078E
:1001F800A11FFF280029F12801300310A60DA70D23
:10020800FF3E031D012921082302031D0D29200893
:100218002202031C1029112918292008A2022108EA
:10022800031CA303A302261401300310A10CA00C85
:10023800FF3E031D19290130A402031D2429252985
:1002480000292508031929292A292F29A609A709D8
:10025800A60A0319A70A2708A1002608A000080073
:1002680083120313AB002B08A800A9012808A000DB
:100278002908A100B830A2000B30A300CB208312BC
:1002880003132008AA002A08AC008E290714AD0120
:10029800AE015F29C73083120313A8005329A80BA6
:1002A800522956290000013083120313AD070318A1
:1002B800AE0A0030AE072C08A800A90129082E02B2
:1002C800031D682928082D02031C6B296C294E2957
:1002D8000710AD01AE018129C73083120313A800AE
:1002E8007529A80B7429782900000130831203139B
:1002F800AD070318AE0A0030AE072C08A800A90104
:1003080029082E02031D8A2928082D02031C8D297D
:100318008E2970290130AB022B0A031D94299529D7
:100328004A29080083120313AD01AE0128082904E5
:1003380003199F29A029D729AC01AC0AAE2901309D
:100348000310A80DA90DFF3E031DA4290130F900D3
:100358007908AC07A91FB129B229A32901300310D4
:10036800AD0DAE0DFF3E031DB32929082B02031D59
:10037800BF2928082A02031CC229C329CA29280818
:10038800AA022908031CAB03AB022D140130031089
:10039800A90CA80CFF3E031DCB290130AC02031D9C
:1003A800D629D729B2292E08A9002D08A8000800A7
:1003B8000B1DDF29E029132A7B1CE329E4290F2AD6
:1003C80083120313061AE929EA29F8293B083F0290
:1003D800031DF0293A083E02031CF329F429F829E1
:1003E8000616BE01BF01082A061EFB29FC29082A99
:1003F8003D083F02031D022A3C083E02031C052A51
:10040800062A082A0612F5290130BE070318BF0A72
:100418000030BF07122A8312031306120B1171084A
:100428008A00700E8300FE0E7E0E090083120313ED
:10043800B1006430A0000030A1003108AF00B00165
:100448002F08A2003008A300CB2083120313210831
:10045800F3002008F2005E30F4000130F500232399
:10046800730883120313B3007208B2005E30A80049
:100478000130A9003308F3003208F2006430F400B8
:100488000030F5002323730883120313AB007208AE
:10049800AA00962183120313280808008316031361
:1004A8000F168F160F178F110F158F140F1480301A
:1004B80081008312031799139A138B170B178B1646
:1004C8000B128B11831603130C1381120111811463
:1004D8000110831203139F171F131F108316031392
:1004E8001F139F161F160C30831203179E009F01BF
:1004F80083160313851606120710080083120313C8
:10050800A800BE01BF016430A0000030A100280887
:10051800F900FA017908F2007A08F300F430F400DF
:100528000130F5002323730883120313A300720814
:10053800A200CB20831203132108BD002008BC00B1
:10054800F430F9000130FA003C087902BA003D089D
:10055800031C3D0A7A02BB00080083120313A9009A
:100568007B10291CB82A7B1483120313BE01BF0118
:100578003C083D04031DC12AC22ACA2A3A083B0482
:10058800031DC72AC82ACA2A3230822283120313BB
:100598002918CF2AD32A831203130616D62A8312C0
:1005A800031306120800831203139F121F129F15CC
:1005B8001F151F142730F300F530F200F20BE22A62
:1005C800F30BE22A831203139F14EE2A0330F2007E
:1005D800F20BEC2A831203139F1CF32AF42AEA2A4B
:1005E8001E08C300831603131E0883120313C200D8
:1005F8000800831203139F121F129F151F111F1447
:100608002730F300F530F200F20B082BF30B082B20
:10061800831203139F14142B0330F200F20B122BD6
:10062800831203139F1C192B1A2B102B1E08C100B1
:10063800831603131E0883120313C0000800F60173
:10064800F701721C282B292B2F2B7408F607031887
:10065800F70A7508F70701300310F40DF50DFF3E92
:10066800031D302B01300310F30CF20CFF3E031D69
:10067800372B72087304031D422B432B252B770855
:10068800F3007608F2000800F4008B137408831254
:1006980003178D000130831603178C000C145C2B94
:1006A8002730F300F530F200F20B582BF30B582BE0
:1006B800831603170C18612B622B542B8B1783128C
:1006C80003170C080800F4006D2B0330F300F30B3C
:1006D8006B2B831603178C18722B732B692B7408DA
:1006E800831203178D0072088C008B13831603176F
:1006F8000C1555308D00AA308D008C140C118B17F9
:020708000800E7
:02400E00D430AC
:00000001FF
