:020000040000FA
:020000000A28CC
:10000800FE00030EF0000A08F1007F280B28FB0110
:1000180083120313AD01AE01AF01B001B101B2010A
:100028008301742983120313A501A11F1C281D280D
:100038002428A009A109A00A0319A10AA501A50A53
:10004800A31F272828283128A209A309A20A0319CF
:10005800A30A0130F8007808A506A601A701200820
:1000680021040319382839287028A401A40A47282C
:1000780001300310A00DA10DFF3E031D3D280130E6
:10008800F8007808A407A11F4A284B283C2801300B
:100098000310A60DA70DFF3E031D4C2821082302BF
:1000A800031D582820082202031C5B285C286328AB
:1000B8002008A2022108031CA303A302261401306E
:1000C8000310A10CA00CFF3E031D64280130A402FC
:1000D800031D6F2870284B282508031974287528D4
:1000E8007A28A609A709A60A0319A70A2708A100BA
:1000F8002608A00008000B1D82288328B6287B1C30
:1001080086288728B22883120313061A8C288D287C
:100118009B282E083202031D93282D083102031C48
:10012800962897289B280616B101B201AB28061E0F
:100138009E289F28AB2830083202031DA5282F08C7
:100148003102031CA828A928AB28061298280130D8
:10015800B1070318B20A0030B207B5288312031397
:1001680006120B1171088A00700E8300FE0E7E0EB7
:10017800090083120313A800B101B2016430A00082
:100188000030A1002808F900FA017908F2007A087D
:10019800F3000A30F4000030F5000F2173088312D1
:1001A8000313A3007208A200162083120313210868
:1001B800B0002008AF000A30F9002F087902AD001E
:1001C80030090318013EAE00080083120313A9008A
:1001D8007B10291CF0287B1483120313B101B20190
:1001E8002F083004031DF928FA2802292D082E04A7
:1001F800031DFF28002902293230BD208312031372
:10020800291807290B298312031306160E298312AE
:10021800031306120800F601F701721C14291529A8
:100228001B297408F6070318F70A7508F707013041
:100238000310F40DF50DFF3E031D1C2901300310BA
:10024800F30CF20CFF3E031D232972087304031DEF
:100258002E292F2911297708F3007608F2000800C3
:100268008316031306128312031306160630F400CE
:100278001330F300AD30F200F20B4029F30B4029A4
:10028800F40B402947298312031306120630F400A1
:100298001330F300AD30F200F20B5029F30B502964
:1002A800F40B502957290800831603130F168F16CD
:1002B8000F178F110F158F140F14803081008B17B3
:1002C8000B138B160B128B11811201118114011063
:1002D800831203179E019F01831603130612080059
:1002E800063083120313AC001330AB00AD30AA0004
:1002F800AA0B7C29AB0B7C29AC0B7C29000058216C
:0E0308000130E9200030E920342188290A283C
:02400E00D430AC
:00000001FF
