:020000040000FA
:020000000A28CC
:10000800FE00030EF6000A08F7001A280B28FA016A
:10001800F001F101F201F301F401F5018312031378
:10002800A001A101A201A3018301A6280B1D1D287F
:100038001E2851287A1C212822284D2883120313B0
:10004800061A27282828362871087502031D2E2825
:1000580070087402031C3128322836280616F40169
:10006800F5014628061E39283A28462873087502DD
:10007800031D402872087402031C4328442846289C
:10008800061233280130F4070318F50A0030F50783
:1000980050288312031306120B1177088A00760E74
:1000A8008300FE0E7E0E0900831603130F168F16AB
:1000B8000F178F110F158F140F14803081008312C2
:1000C800031799139A138B170B138B160B128B119B
:1000D8008316031381120111811401108312031373
:1000E8009F131F131F10831603131F139F161F162A
:1000F8000C30831203179E009F0183160313061208
:1001080007100800831203139F121F129F151F1553
:100118001F149F1493280330F800F80B91288312BA
:1001280003139F1C982899288F28831603131E08E9
:10013800831203131E08F800F9017808A200790851
:10014800A3000800063083120313A6001330A5008D
:10015800AD30A400A40BAE28A50BAE28A60BAE2884
:0E016800000058208620BA20B6280A28080079
:02400E00D430AC
:00000001FF
