:020000040000FA
:020000000A28CC
:10000800FE00030EF0000A08F100E8290B28FB01A6
:1000180083120313BA01BB01BC01BD01BE01BF01BC
:10002800C001C101C201C30183011A280030722333
:1000380083120313B6003608B9000630831203137F
:10004800B8001330B700AD30B600B60B2928B70B8F
:100058002928B80B292800005E220030BD22003074
:100068008E22E32283120313420A03300319430644
:10007800031D3F28402843280430402167284308AF
:10008800803AFF0081307F02031D4C283130420244
:1000980003184F285028532803304021672883121B
:1000A80003134308803AFF0082307F02031D5E2855
:1000B800A9304202031C61286228652804304021C7
:1000C80067280130BD227B1C6A286B28C728831249
:1000D8000313061609238312031306124108803AF4
:1000E800FF0081307F02031D7B281E304002031C65
:1000F8007E287F288328143026228E22C728831240
:1001080003134108803AFF0080307F02031D8E28C8
:100118002E304002031C912892289628503026221F
:100128008E22C728831203134108803AFF008030CB
:100138007F02031DA12815304002031CA428A5280E
:10014800C72883120313390A031DAB28AC28BE281D
:100158005030262283120313B6003608B900BE2891
:1001680039088E22831203133908B6003608F200C4
:1001780000305423013083120313B902390A031DD6
:10018800C628C728B428831203133908031DCD28AD
:10019800CE28D3288D23031CD228D3283128023017
:1001A800402131280A2883120313A501A11FDD2845
:1001B800DE28E528A009A109A00A0319A10AA501BA
:1001C800A50AA31FE828E928F228A209A309A20A78
:1001D8000319A30A0130F8007808A506A601A701AB
:1001E800200821040319F928FA283129A401A40AAE
:1001F800082901300310A00DA10DFF3E031DFE28A4
:100208000130F8007808A407A11F0B290C29FD2844
:1002180001300310A60DA70DFF3E031D0D2921086F
:100228002302031D192920082202031C1C291D2949
:1002380024292008A2022108031CA303A3022614D0
:1002480001300310A10CA00CFF3E031D252901302D
:10025800A402031D302931290C2925080319352941
:1002680036293B29A609A709A60A0319A70A2708B8
:10027800A1002608A000080083120313AB002B0876
:10028800A800A9012808A0002908A100B830A200E8
:100298000B30A300D720831203132008AA002A08D2
:1002A800AC009A290714AD01AE016B29C73083123F
:1002B8000313A8005F29A80B5E29622900000130FA
:1002C80083120313AD070318AE0A0030AE072C08DB
:1002D800A800A90129082E02031D742928082D0247
:1002E800031C772978295A290710AD01AE018D29F9
:1002F800C73083120313A8008129A80B80298429F9
:100308000000013083120313AD070318AE0A003052
:10031800AE072C08A800A90129082E02031D96295A
:1003280028082D02031C99299A297C290130AB023F
:100338002B0A031DA029A12956290800831203139B
:10034800AD01AE01280829040319AB29AC29E3291A
:10035800AC01AC0ABA2901300310A80DA90DFF3E63
:10036800031DB0290130F9007908AC07A91FBD2980
:10037800BE29AF2901300310AD0DAE0DFF3E031DA0
:10038800BF2929082B02031DCB2928082A02031C90
:10039800CE29CF29D6292808AA022908031CAB038D
:1003A800AB022D1401300310A90CA80CFF3E031D4D
:1003B800D7290130AC02031DE229E329BE292E0802
:1003C800A9002D08A80008000B1DEB29EC291F2AFD
:1003D8007B1CEF29F0291B2A83120313061AF5291F
:1003E800F629042A3B083F02031DFC293A083E026D
:1003F800031CFF29002A042A0616BE01BF01142A7D
:10040800061E072A082A142A3D083F02031D0E2A41
:100418003C083E02031C112A122A142A0612012A39
:100428000130BE070318BF0A0030BF071E2A831217
:10043800031306120B1171088A00700E8300FE0E5A
:100448007E0E090083120313B1006430A00000304F
:10045800A1003108AF00B0012F08A2003008A300A6
:10046800D720831203132108F3002008F2005E301E
:10047800F4000130F5002F23730883120313B3002F
:100488007208B2005E30A8000130A9003308F300FA
:100498003208F2006430F4000030F5002F237308AE
:1004A80083120313AB007208AA00A221831203135C
:1004B80028080800831603130F168F160F178F11BD
:1004C8000F158F140F1480308100831203179913AE
:1004D8009A138B170B178B160B128B11831603139A
:1004E8000C138112011181140110831203139F1739
:1004F8001F131F10831603131F139F161F160C308C
:10050800831203179E009F01831603138516061294
:100518000710080083120313A800BE01BF0164304E
:10052800A0000030A1002808F900FA017908F200BB
:100538007A08F300F430F4000130F5002F23730833
:1005480083120313A3007208A200D7208312031397
:100558002108BD002008BC00F430F9000130FA0081
:100568003C087902BA003D08031C3D0A7A02BB0028
:10057800080083120313A9007B10291CC42A7B14CA
:1005880083120313BE01BF013C083D04031DCD2A9D
:10059800CE2AD62A3A083B04031DD32AD42AD62ABF
:1005A80032308E22831203132918DB2ADF2A8312A2
:1005B80003130616E22A8312031306120800831295
:1005C80003139F121F129F151F151F142730F300C6
:1005D800F530F200F20BEE2AF30BEE2A8312031326
:1005E8009F14FA2A0330F200F20BF82A831203133D
:1005F8009F1CFF2A002BF62A1E08C300831603132C
:100608001E0883120313C2000800831203139F12EB
:100618001F129F151F111F142730F300F530F20029
:10062800F20B142BF30B142B831203139F14202BA0
:100638000330F200F20B1E2B831203139F1C252B91
:10064800262B1C2B1E08C100831603131E088312B9
:100658000313C0000800F601F701721C342B352B78
:100668003B2B7408F6070318F70A7508F7070130DB
:100678000310F40DF50DFF3E031D3C2B0130031054
:10068800F30CF20CFF3E031D432B72087304031D89
:100698004E2B4F2B312B7708F3007608F200080019
:1006A800F4005A2B0330F300F30B582B831603176F
:1006B8008C185F2B602B562B7408831203178D0040
:1006C80072088C008B13831603170C1555308D0098
:1006D800AA308D008C140C118B170800F3008B13B3
:1006E8007308831203178D000130831603178C00DB
:1006F8000C14822B0330F200F20B802B83160317A5
:100708000C18872B882B7E2B8B17831203170C084A
:1007180008007B1C902B912BA02B962B0330F2000A
:10072800F20B942B83120313061E9B2B9C2B922BEC
:10073800861E9F2BA02BA22B0310A32B03140800AB
:02400E00D430AC
:00000001FF
